{"abi":[{"type":"constructor","inputs":[],"stateMutability":"nonpayable"},{"type":"function","name":"approve","inputs":[{"name":"to","type":"address","internalType":"address"},{"name":"tokenId","type":"uint256","internalType":"uint256"}],"outputs":[],"stateMutability":"nonpayable"},{"type":"function","name":"balanceOf","inputs":[{"name":"owner","type":"address","internalType":"address"}],"outputs":[{"name":"","type":"uint256","internalType":"uint256"}],"stateMutability":"view"},{"type":"function","name":"becomeUser","inputs":[{"name":"_name","type":"string","internalType":"string"},{"name":"_email","type":"string","internalType":"string"},{"name":"_image","type":"string","internalType":"string"}],"outputs":[],"stateMutability":"nonpayable"},{"type":"function","name":"getAdmin","inputs":[],"outputs":[{"name":"","type":"address","internalType":"address"}],"stateMutability":"view"},{"type":"function","name":"getApproved","inputs":[{"name":"tokenId","type":"uint256","internalType":"uint256"}],"outputs":[{"name":"","type":"address","internalType":"address"}],"stateMutability":"view"},{"type":"function","name":"isApprovedForAll","inputs":[{"name":"owner","type":"address","internalType":"address"},{"name":"operator","type":"address","internalType":"address"}],"outputs":[{"name":"","type":"bool","internalType":"bool"}],"stateMutability":"view"},{"type":"function","name":"leave","inputs":[],"outputs":[],"stateMutability":"nonpayable"},{"type":"function","name":"name","inputs":[],"outputs":[{"name":"","type":"string","internalType":"string"}],"stateMutability":"view"},{"type":"function","name":"owner","inputs":[],"outputs":[{"name":"","type":"address","internalType":"address"}],"stateMutability":"view"},{"type":"function","name":"ownerOf","inputs":[{"name":"tokenId","type":"uint256","internalType":"uint256"}],"outputs":[{"name":"","type":"address","internalType":"address"}],"stateMutability":"view"},{"type":"function","name":"removeUser","inputs":[{"name":"_userToBeRemoved","type":"address","internalType":"address"}],"outputs":[],"stateMutability":"nonpayable"},{"type":"function","name":"renounceOwnership","inputs":[],"outputs":[],"stateMutability":"nonpayable"},{"type":"function","name":"safeTransferFrom","inputs":[{"name":"from","type":"address","internalType":"address"},{"name":"to","type":"address","internalType":"address"},{"name":"tokenId","type":"uint256","internalType":"uint256"}],"outputs":[],"stateMutability":"nonpayable"},{"type":"function","name":"safeTransferFrom","inputs":[{"name":"","type":"address","internalType":"address"},{"name":"","type":"address","internalType":"address"},{"name":"","type":"uint256","internalType":"uint256"},{"name":"","type":"bytes","internalType":"bytes"}],"outputs":[],"stateMutability":"pure"},{"type":"function","name":"setAdmin","inputs":[{"name":"newAdmin","type":"address","internalType":"address"}],"outputs":[],"stateMutability":"nonpayable"},{"type":"function","name":"setApprovalForAll","inputs":[{"name":"operator","type":"address","internalType":"address"},{"name":"approved","type":"bool","internalType":"bool"}],"outputs":[],"stateMutability":"nonpayable"},{"type":"function","name":"supportsInterface","inputs":[{"name":"interfaceId","type":"bytes4","internalType":"bytes4"}],"outputs":[{"name":"","type":"bool","internalType":"bool"}],"stateMutability":"view"},{"type":"function","name":"symbol","inputs":[],"outputs":[{"name":"","type":"string","internalType":"string"}],"stateMutability":"view"},{"type":"function","name":"tokenURI","inputs":[{"name":"userId","type":"uint256","internalType":"uint256"}],"outputs":[{"name":"","type":"string","internalType":"string"}],"stateMutability":"view"},{"type":"function","name":"transferFrom","inputs":[{"name":"","type":"address","internalType":"address"},{"name":"","type":"address","internalType":"address"},{"name":"","type":"uint256","internalType":"uint256"}],"outputs":[],"stateMutability":"pure"},{"type":"function","name":"transferOwnership","inputs":[{"name":"newOwner","type":"address","internalType":"address"}],"outputs":[],"stateMutability":"nonpayable"},{"type":"function","name":"userCount","inputs":[],"outputs":[{"name":"","type":"uint256","internalType":"uint256"}],"stateMutability":"view"},{"type":"function","name":"userToNftId","inputs":[{"name":"","type":"address","internalType":"address"}],"outputs":[{"name":"","type":"uint256","internalType":"uint256"}],"stateMutability":"view"},{"type":"event","name":"AdminSet","inputs":[{"name":"oldAdmin","type":"address","indexed":true,"internalType":"address"},{"name":"newAdmin","type":"address","indexed":true,"internalType":"address"}],"anonymous":false},{"type":"event","name":"Approval","inputs":[{"name":"owner","type":"address","indexed":true,"internalType":"address"},{"name":"approved","type":"address","indexed":true,"internalType":"address"},{"name":"tokenId","type":"uint256","indexed":true,"internalType":"uint256"}],"anonymous":false},{"type":"event","name":"ApprovalForAll","inputs":[{"name":"owner","type":"address","indexed":true,"internalType":"address"},{"name":"operator","type":"address","indexed":true,"internalType":"address"},{"name":"approved","type":"bool","indexed":false,"internalType":"bool"}],"anonymous":false},{"type":"event","name":"BecameUser","inputs":[{"name":"user","type":"address","indexed":true,"internalType":"address"},{"name":"userId","type":"uint256","indexed":true,"internalType":"uint256"},{"name":"name","type":"string","indexed":false,"internalType":"string"},{"name":"email","type":"string","indexed":false,"internalType":"string"},{"name":"image","type":"string","indexed":false,"internalType":"string"}],"anonymous":false},{"type":"event","name":"OwnershipTransferred","inputs":[{"name":"previousOwner","type":"address","indexed":true,"internalType":"address"},{"name":"newOwner","type":"address","indexed":true,"internalType":"address"}],"anonymous":false},{"type":"event","name":"Transfer","inputs":[{"name":"from","type":"address","indexed":true,"internalType":"address"},{"name":"to","type":"address","indexed":true,"internalType":"address"},{"name":"tokenId","type":"uint256","indexed":true,"internalType":"uint256"}],"anonymous":false},{"type":"event","name":"UserLeft","inputs":[{"name":"user","type":"address","indexed":true,"internalType":"address"},{"name":"userId","type":"uint256","indexed":true,"internalType":"uint256"}],"anonymous":false},{"type":"error","name":"ERC721IncorrectOwner","inputs":[{"name":"sender","type":"address","internalType":"address"},{"name":"tokenId","type":"uint256","internalType":"uint256"},{"name":"owner","type":"address","internalType":"address"}]},{"type":"error","name":"ERC721InsufficientApproval","inputs":[{"name":"operator","type":"address","internalType":"address"},{"name":"tokenId","type":"uint256","internalType":"uint256"}]},{"type":"error","name":"ERC721InvalidApprover","inputs":[{"name":"approver","type":"address","internalType":"address"}]},{"type":"error","name":"ERC721InvalidOperator","inputs":[{"name":"operator","type":"address","internalType":"address"}]},{"type":"error","name":"ERC721InvalidOwner","inputs":[{"name":"owner","type":"address","internalType":"address"}]},{"type":"error","name":"ERC721InvalidReceiver","inputs":[{"name":"receiver","type":"address","internalType":"address"}]},{"type":"error","name":"ERC721InvalidSender","inputs":[{"name":"sender","type":"address","internalType":"address"}]},{"type":"error","name":"ERC721Metadata__URI_QueryFor_NonExistentToken","inputs":[]},{"type":"error","name":"ERC721NonexistentToken","inputs":[{"name":"tokenId","type":"uint256","internalType":"uint256"}]},{"type":"error","name":"OwnableInvalidOwner","inputs":[{"name":"owner","type":"address","internalType":"address"}]},{"type":"error","name":"OwnableUnauthorizedAccount","inputs":[{"name":"account","type":"address","internalType":"address"}]},{"type":"error","name":"UR__CannotTransferNFT","inputs":[]},{"type":"error","name":"UR__CantBeZeroAddress","inputs":[]},{"type":"error","name":"UR__NotAdmin","inputs":[]}],"bytecode":{"object":"0x608060405234801561000f575f5ffd5b50336040518060400160405280600b81526020016a05553747265616d444170760ac1b815250604051806040016040528060048152602001635553444160e01b815250815f908161006091906101a7565b50600161006d82826101a7565b5050506001600160a01b03811661009d57604051631e4fbdf760e01b81525f600482015260240160405180910390fd5b6100a6816100be565b50600880546001600160a01b03191633179055610261565b600680546001600160a01b038381166001600160a01b0319831681179093556040519116919082907f8be0079c531659141344cd1fd0a4f28419497f9722a3daafe3b4186f6b6457e0905f90a35050565b634e487b7160e01b5f52604160045260245ffd5b600181811c9082168061013757607f821691505b60208210810361015557634e487b7160e01b5f52602260045260245ffd5b50919050565b601f8211156101a257805f5260205f20601f840160051c810160208510156101805750805b601f840160051c820191505b8181101561019f575f815560010161018c565b50505b505050565b81516001600160401b038111156101c0576101c061010f565b6101d4816101ce8454610123565b8461015b565b6020601f821160018114610206575f83156101ef5750848201515b5f19600385901b1c1916600184901b17845561019f565b5f84815260208120601f198516915b828110156102355787850151825560209485019460019092019101610215565b508482101561025257868401515f19600387901b60f8161c191681555b50505050600190811b01905550565b611ca48061026e5f395ff3fe608060405234801561000f575f5ffd5b5060043610610148575f3560e01c8063715018a6116100bf578063b88d4fde11610079578063b88d4fde146102aa578063be9b20d9146102b8578063c87b56dd146102d7578063d66d9e19146102ea578063e985e9c5146102f2578063f2fde38b14610305575f5ffd5b8063715018a6146102505780638da5cb5b1461025857806395d89b41146102695780639857518814610271578063a22cb46514610284578063b07fe0e014610297575f5ffd5b806323b872dd1161011057806323b872dd146101e057806342842e0e146101f35780636352211e146102065780636e9960c314610219578063704b6c021461022a57806370a082311461023d575f5ffd5b806301ffc9a71461014c57806306fdde031461017457806307973ccf14610189578063081812fc146101a0578063095ea7b3146101cb575b5f5ffd5b61015f61015a3660046115ee565b610318565b60405190151581526020015b60405180910390f35b61017c610369565b60405161016b9190611637565b61019260095481565b60405190815260200161016b565b6101b36101ae366004611649565b6103f8565b6040516001600160a01b03909116815260200161016b565b6101de6101d936600461167b565b61041f565b005b6101de6101ee3660046116a3565b61042e565b6101de6102013660046116a3565b610447565b6101b3610214366004611649565b610466565b6008546001600160a01b03166101b3565b6101de6102383660046116dd565b610470565b61019261024b3660046116dd565b610515565b6101de61055f565b6006546001600160a01b03166101b3565b61017c610572565b6101de61027f3660046116dd565b610581565b6101de6102923660046116f6565b6106e0565b6101de6102a53660046117d8565b6106eb565b6101de6101ee366004611866565b6101926102c63660046116dd565b600a6020525f908152604090205481565b61017c6102e5366004611649565b61099f565b6101de610c25565b61015f6103003660046118dd565b610d72565b6101de6103133660046116dd565b610d9f565b5f6001600160e01b031982166380ac58cd60e01b148061034857506001600160e01b03198216635b5e139f60e01b145b8061036357506301ffc9a760e01b6001600160e01b03198316145b92915050565b60605f80546103779061190e565b80601f01602080910402602001604051908101604052809291908181526020018280546103a39061190e565b80156103ee5780601f106103c5576101008083540402835291602001916103ee565b820191905f5260205f20905b8154815290600101906020018083116103d157829003601f168201915b5050505050905090565b5f61040282610ddc565b505f828152600460205260409020546001600160a01b0316610363565b61042a828233610e14565b5050565b6040516301aa3b1360e61b815260040160405180910390fd5b61046183838360405180602001604052805f81525061042e565b505050565b5f61036382610ddc565b6008546001600160a01b0316331461049b576040516358e6cfe160e11b815260040160405180910390fd5b806001600160a01b0381166104c357604051636c816fd160e11b815260040160405180910390fd5b600880546001600160a01b038481166001600160a01b0319831681179093556040519116919082907fbf265e8326285a2747e33e54d5945f7111f2b5edb826eb8c08d4677779b3ff97905f90a3505050565b5f6001600160a01b038216610544576040516322718ad960e21b81525f60048201526024015b60405180910390fd5b506001600160a01b03165f9081526003602052604090205490565b610567610e21565b6105705f610e4e565b565b6060600180546103779061190e565b6008546001600160a01b031633146105ac576040516358e6cfe160e11b815260040160405180910390fd5b806001600160a01b0381166105d457604051636c816fd160e11b815260040160405180910390fd5b6001600160a01b0382165f908152600a6020526040812054908190036106335760405162461bcd60e51b81526020600482015260146024820152735573657220646f6573206e6f742065786973742160601b604482015260640161053b565b61063c81610e9f565b6001600160a01b0383165f908152600a60209081526040808320839055838352600b909152812080546001600160a01b03191681559061067f600183018261158f565b61068c600283015f61158f565b610699600383015f61158f565b505060098054905f6106aa8361195a565b9091555050604051819033907f66ac3b2f1631f29b7b1d5a7805e6c6728f0ac50215c365bc759219d4441ce469905f90a3505050565b61042a338383610ed7565b335f908152600a6020526040902054156107475760405162461bcd60e51b815260206004820152601c60248201527f557365722070726f66696c6520616c7265616479206578697374732100000000604482015260640161053b565b600c836040516107579190611986565b9081526040519081900360200190205460ff16156107b75760405162461bcd60e51b815260206004820181905260248201527f557365726e616d652068617320616c7265616479206265656e2074616b656e21604482015260640161053b565b600d826040516107c79190611986565b9081526040519081900360200190205460ff16156108275760405162461bcd60e51b815260206004820152601d60248201527f456d61696c2068617320616c7265616479206265656e20757365642121000000604482015260640161053b565b5f60075f815461083690611991565b918290555090506108473382610f75565b60095f815461085590611991565b90915550604080516080810182523381526020808201878152828401879052606083018690525f858152600b909252929020815181546001600160a01b0319166001600160a01b03909116178155915190919060018201906108b790826119ed565b50604082015160028201906108cc90826119ed565b50606082015160038201906108e190826119ed565b5050335f908152600a6020526040908190208390555160019150600c90610909908790611986565b908152604051908190036020018120805492151560ff1990931692909217909155600190600d9061093b908690611986565b908152604051908190036020018120805492151560ff1990931692909217909155819033907f32db93c778faeefeb20c59ea154d991a5116264ef3aa3db0089557f1d6e9fd679061099190889088908890611aa8565b60405180910390a350505050565b60605f6109ab83610466565b6001600160a01b0316036109d2576040516336faf6d760e11b815260040160405180910390fd5b5f828152600b602052604081208054600190910180546001600160a01b0390921692916109fe9061190e565b80601f0160208091040260200160405190810160405280929190818152602001828054610a2a9061190e565b8015610a755780601f10610a4c57610100808354040283529160200191610a75565b820191905f5260205f20905b815481529060010190602001808311610a5857829003601f168201915b505050505090505f600b5f8681526020019081526020015f206002018054610a9c9061190e565b80601f0160208091040260200160405190810160405280929190818152602001828054610ac89061190e565b8015610b135780601f10610aea57610100808354040283529160200191610b13565b820191905f5260205f20905b815481529060010190602001808311610af657829003601f168201915b505050505090505f600b5f8781526020019081526020015f206003018054610b3a9061190e565b80601f0160208091040260200160405190810160405280929190818152602001828054610b669061190e565b8015610bb15780601f10610b8857610100808354040283529160200191610bb1565b820191905f5260205f20905b815481529060010190602001808311610b9457829003601f168201915b50505050509050610bcc60408051602081019091525f815290565b610bfa85858585604051602001610be69493929190611aea565b604051602081830303815290604052610f8e565b604051602001610c0b929190611b84565b604051602081830303815290604052945050505050919050565b335f908152600a602052604081205490819003610c7b5760405162461bcd60e51b81526020600482015260146024820152735573657220646f6573206e6f742065786973742160601b604482015260640161053b565b33610c8582610466565b6001600160a01b031614610cd05760405162461bcd60e51b81526020600482015260126024820152714e6f742070726f66696c65206f776e65722160701b604482015260640161053b565b610cd981610e9f565b335f908152600a60209081526040808320839055838352600b909152812080546001600160a01b031916815590610d13600183018261158f565b610d20600283015f61158f565b610d2d600383015f61158f565b505060098054905f610d3e8361195a565b9091555050604051819033907f66ac3b2f1631f29b7b1d5a7805e6c6728f0ac50215c365bc759219d4441ce469905f90a350565b6001600160a01b039182165f90815260056020908152604080832093909416825291909152205460ff1690565b610da7610e21565b6001600160a01b038116610dd057604051631e4fbdf760e01b81525f600482015260240161053b565b610dd981610e4e565b50565b5f818152600260205260408120546001600160a01b03168061036357604051637e27328960e01b81526004810184905260240161053b565b6104618383836001610fb4565b6006546001600160a01b031633146105705760405163118cdaa760e01b815233600482015260240161053b565b600680546001600160a01b038381166001600160a01b0319831681179093556040519116919082907f8be0079c531659141344cd1fd0a4f28419497f9722a3daafe3b4186f6b6457e0905f90a35050565b5f610eab5f835f6110b8565b90506001600160a01b03811661042a57604051637e27328960e01b81526004810183905260240161053b565b6001600160a01b038216610f0957604051630b61174360e31b81526001600160a01b038316600482015260240161053b565b6001600160a01b038381165f81815260056020908152604080832094871680845294825291829020805460ff191686151590811790915591519182527f17307eab39ab6107e8899845ad3d59bd9653f200f220920489ca2b5937696c31910160405180910390a3505050565b61042a828260405180602001604052805f8152506111ac565b606061036382604051806060016040528060408152602001611c2f6040913960016111c3565b8080610fc857506001600160a01b03821615155b15611089575f610fd784610ddc565b90506001600160a01b038316158015906110035750826001600160a01b0316816001600160a01b031614155b801561101657506110148184610d72565b155b1561103f5760405163a9fbf51f60e01b81526001600160a01b038416600482015260240161053b565b81156110875783856001600160a01b0316826001600160a01b03167f8c5be1e5ebec7d5bd14f71427d1e84f3dd0314c0f7b2291e5b200ac8c7c3b92560405160405180910390a45b505b50505f90815260046020526040902080546001600160a01b0319166001600160a01b0392909216919091179055565b5f828152600260205260408120546001600160a01b03908116908316156110e4576110e481848661133e565b6001600160a01b0381161561111e576110ff5f855f5f610fb4565b6001600160a01b0381165f90815260036020526040902080545f190190555b6001600160a01b0385161561114c576001600160a01b0385165f908152600360205260409020805460010190555b5f8481526002602052604080822080546001600160a01b0319166001600160a01b0389811691821790925591518793918516917fddf252ad1be2c89b69c2b068fc378daa952ba7f163c4a11628f55a4df523b3ef91a490505b9392505050565b6111b683836113a2565b610461335f858585611403565b606083515f036111e1575060408051602081019091525f81526111a5565b5f82611211576003855160046111f79190611b98565b611202906002611baf565b61120c9190611bc2565b611236565b6003855160026112219190611baf565b61122b9190611bc2565b611236906004611b98565b90505f8167ffffffffffffffff8111156112525761125261172f565b6040519080825280601f01601f19166020018201604052801561127c576020820181803683370190505b509050600185016020820187885189016020810180515f82525b828410156112f1576003840193508351603f8160121c168701518653600186019550603f81600c1c168701518653600186019550603f8160061c168701518653600186019550603f8116870151865350600185019450611296565b90525050851561133257600388510660018114611315576002811461132857611330565b603d6001830353603d6002830353611330565b603d60018303535b505b50909695505050505050565b61134983838361152b565b610461576001600160a01b03831661137757604051637e27328960e01b81526004810182905260240161053b565b60405163177e802f60e01b81526001600160a01b03831660048201526024810182905260440161053b565b6001600160a01b0382166113cb57604051633250574960e11b81525f600482015260240161053b565b5f6113d783835f6110b8565b90506001600160a01b03811615610461576040516339e3563760e11b81525f600482015260240161053b565b6001600160a01b0383163b1561152457604051630a85bd0160e11b81526001600160a01b0384169063150b7a0290611445908890889087908790600401611be1565b6020604051808303815f875af192505050801561147f575060408051601f3d908101601f1916820190925261147c91810190611c13565b60015b6114e6573d8080156114ac576040519150601f19603f3d011682016040523d82523d5f602084013e6114b1565b606091505b5080515f036114de57604051633250574960e11b81526001600160a01b038516600482015260240161053b565b805181602001fd5b6001600160e01b03198116630a85bd0160e11b1461152257604051633250574960e11b81526001600160a01b038516600482015260240161053b565b505b5050505050565b5f6001600160a01b038316158015906115875750826001600160a01b0316846001600160a01b0316148061156457506115648484610d72565b8061158757505f828152600460205260409020546001600160a01b038481169116145b949350505050565b50805461159b9061190e565b5f825580601f106115aa575050565b601f0160209004905f5260205f2090810190610dd991905b808211156115d5575f81556001016115c2565b5090565b6001600160e01b031981168114610dd9575f5ffd5b5f602082840312156115fe575f5ffd5b81356111a5816115d9565b5f81518084528060208401602086015e5f602082860101526020601f19601f83011685010191505092915050565b602081525f6111a56020830184611609565b5f60208284031215611659575f5ffd5b5035919050565b80356001600160a01b0381168114611676575f5ffd5b919050565b5f5f6040838503121561168c575f5ffd5b61169583611660565b946020939093013593505050565b5f5f5f606084860312156116b5575f5ffd5b6116be84611660565b92506116cc60208501611660565b929592945050506040919091013590565b5f602082840312156116ed575f5ffd5b6111a582611660565b5f5f60408385031215611707575f5ffd5b61171083611660565b915060208301358015158114611724575f5ffd5b809150509250929050565b634e487b7160e01b5f52604160045260245ffd5b5f5f67ffffffffffffffff84111561175d5761175d61172f565b50604051601f19601f85018116603f0116810181811067ffffffffffffffff8211171561178c5761178c61172f565b6040528381529050808284018510156117a3575f5ffd5b838360208301375f60208583010152509392505050565b5f82601f8301126117c9575f5ffd5b6111a583833560208501611743565b5f5f5f606084860312156117ea575f5ffd5b833567ffffffffffffffff811115611800575f5ffd5b61180c868287016117ba565b935050602084013567ffffffffffffffff811115611828575f5ffd5b611834868287016117ba565b925050604084013567ffffffffffffffff811115611850575f5ffd5b61185c868287016117ba565b9150509250925092565b5f5f5f5f60808587031215611879575f5ffd5b61188285611660565b935061189060208601611660565b925060408501359150606085013567ffffffffffffffff8111156118b2575f5ffd5b8501601f810187136118c2575f5ffd5b6118d187823560208401611743565b91505092959194509250565b5f5f604083850312156118ee575f5ffd5b6118f783611660565b915061190560208401611660565b90509250929050565b600181811c9082168061192257607f821691505b60208210810361194057634e487b7160e01b5f52602260045260245ffd5b50919050565b634e487b7160e01b5f52601160045260245ffd5b5f8161196857611968611946565b505f190190565b5f81518060208401855e5f93019283525090919050565b5f6111a5828461196f565b5f600182016119a2576119a2611946565b5060010190565b601f82111561046157805f5260205f20601f840160051c810160208510156119ce5750805b601f840160051c820191505b81811015611524575f81556001016119da565b815167ffffffffffffffff811115611a0757611a0761172f565b611a1b81611a15845461190e565b846119a9565b6020601f821160018114611a4d575f8315611a365750848201515b5f19600385901b1c1916600184901b178455611524565b5f84815260208120601f198516915b82811015611a7c5787850151825560209485019460019092019101611a5c565b5084821015611a9957868401515f19600387901b60f8161c191681555b50505050600190811b01905550565b606081525f611aba6060830186611609565b8281036020840152611acc8186611609565b90508281036040840152611ae08185611609565b9695505050505050565b6b3d9130b2323932b9b9911d1160a11b8152606085901b6bffffffffffffffffffffffff1916600c82015267113730b6b2911d1160c11b60208201525f611b34602883018661196f565b681132b6b0b4b6111d1160b91b8152611b50600982018661196f565b681134b6b0b3b2911d1160b91b81529050611b6e600982018561196f565b61227d60f01b8152600201979650505050505050565b5f611587611b92838661196f565b8461196f565b808202811582820484141761036357610363611946565b8082018082111561036357610363611946565b5f82611bdc57634e487b7160e01b5f52601260045260245ffd5b500490565b6001600160a01b03858116825284166020820152604081018390526080606082018190525f90611ae090830184611609565b5f60208284031215611c23575f5ffd5b81516111a5816115d956fe4142434445464748494a4b4c4d4e4f505152535455565758595a6162636465666768696a6b6c6d6e6f707172737475767778797a303132333435363738392b2fa26469706673582212206374323b6b76887a94ebf167c775f161557f362a2025c8189a3543567d5f561964736f6c634300081b0033","linkReferences":{}},"methodIdentifiers":{"approve(address,uint256)":"095ea7b3","balanceOf(address)":"70a08231","becomeUser(string,string,string)":"b07fe0e0","getAdmin()":"6e9960c3","getApproved(uint256)":"081812fc","isApprovedForAll(address,address)":"e985e9c5","leave()":"d66d9e19","name()":"06fdde03","owner()":"8da5cb5b","ownerOf(uint256)":"6352211e","removeUser(address)":"98575188","renounceOwnership()":"715018a6","safeTransferFrom(address,address,uint256)":"42842e0e","safeTransferFrom(address,address,uint256,bytes)":"b88d4fde","setAdmin(address)":"704b6c02","setApprovalForAll(address,bool)":"a22cb465","supportsInterface(bytes4)":"01ffc9a7","symbol()":"95d89b41","tokenURI(uint256)":"c87b56dd","transferFrom(address,address,uint256)":"23b872dd","transferOwnership(address)":"f2fde38b","userCount()":"07973ccf","userToNftId(address)":"be9b20d9"},"id":34}