{"abi":[{"type":"constructor","inputs":[],"stateMutability":"nonpayable"},{"type":"function","name":"approve","inputs":[{"name":"to","type":"address","internalType":"address"},{"name":"tokenId","type":"uint256","internalType":"uint256"}],"outputs":[],"stateMutability":"nonpayable"},{"type":"function","name":"balanceOf","inputs":[{"name":"owner","type":"address","internalType":"address"}],"outputs":[{"name":"","type":"uint256","internalType":"uint256"}],"stateMutability":"view"},{"type":"function","name":"becomeUser","inputs":[{"name":"_name","type":"string","internalType":"string"},{"name":"_email","type":"string","internalType":"string"},{"name":"_image","type":"string","internalType":"string"}],"outputs":[],"stateMutability":"nonpayable"},{"type":"function","name":"getAdmin","inputs":[],"outputs":[{"name":"","type":"address","internalType":"address"}],"stateMutability":"view"},{"type":"function","name":"getApproved","inputs":[{"name":"tokenId","type":"uint256","internalType":"uint256"}],"outputs":[{"name":"","type":"address","internalType":"address"}],"stateMutability":"view"},{"type":"function","name":"isApprovedForAll","inputs":[{"name":"owner","type":"address","internalType":"address"},{"name":"operator","type":"address","internalType":"address"}],"outputs":[{"name":"","type":"bool","internalType":"bool"}],"stateMutability":"view"},{"type":"function","name":"leave","inputs":[],"outputs":[],"stateMutability":"nonpayable"},{"type":"function","name":"name","inputs":[],"outputs":[{"name":"","type":"string","internalType":"string"}],"stateMutability":"view"},{"type":"function","name":"owner","inputs":[],"outputs":[{"name":"","type":"address","internalType":"address"}],"stateMutability":"view"},{"type":"function","name":"ownerOf","inputs":[{"name":"tokenId","type":"uint256","internalType":"uint256"}],"outputs":[{"name":"","type":"address","internalType":"address"}],"stateMutability":"view"},{"type":"function","name":"removeUser","inputs":[{"name":"_userToBeRemoved","type":"address","internalType":"address"}],"outputs":[],"stateMutability":"nonpayable"},{"type":"function","name":"renounceOwnership","inputs":[],"outputs":[],"stateMutability":"nonpayable"},{"type":"function","name":"safeTransferFrom","inputs":[{"name":"from","type":"address","internalType":"address"},{"name":"to","type":"address","internalType":"address"},{"name":"tokenId","type":"uint256","internalType":"uint256"}],"outputs":[],"stateMutability":"nonpayable"},{"type":"function","name":"safeTransferFrom","inputs":[{"name":"","type":"address","internalType":"address"},{"name":"","type":"address","internalType":"address"},{"name":"","type":"uint256","internalType":"uint256"},{"name":"","type":"bytes","internalType":"bytes"}],"outputs":[],"stateMutability":"pure"},{"type":"function","name":"setAdmin","inputs":[{"name":"newAdmin","type":"address","internalType":"address"}],"outputs":[],"stateMutability":"nonpayable"},{"type":"function","name":"setApprovalForAll","inputs":[{"name":"operator","type":"address","internalType":"address"},{"name":"approved","type":"bool","internalType":"bool"}],"outputs":[],"stateMutability":"nonpayable"},{"type":"function","name":"supportsInterface","inputs":[{"name":"interfaceId","type":"bytes4","internalType":"bytes4"}],"outputs":[{"name":"","type":"bool","internalType":"bool"}],"stateMutability":"view"},{"type":"function","name":"symbol","inputs":[],"outputs":[{"name":"","type":"string","internalType":"string"}],"stateMutability":"view"},{"type":"function","name":"tokenURI","inputs":[{"name":"userId","type":"uint256","internalType":"uint256"}],"outputs":[{"name":"","type":"string","internalType":"string"}],"stateMutability":"view"},{"type":"function","name":"transferFrom","inputs":[{"name":"","type":"address","internalType":"address"},{"name":"","type":"address","internalType":"address"},{"name":"","type":"uint256","internalType":"uint256"}],"outputs":[],"stateMutability":"pure"},{"type":"function","name":"transferOwnership","inputs":[{"name":"newOwner","type":"address","internalType":"address"}],"outputs":[],"stateMutability":"nonpayable"},{"type":"function","name":"userCount","inputs":[],"outputs":[{"name":"","type":"uint256","internalType":"uint256"}],"stateMutability":"view"},{"type":"function","name":"userToNftId","inputs":[{"name":"","type":"address","internalType":"address"}],"outputs":[{"name":"","type":"uint256","internalType":"uint256"}],"stateMutability":"view"},{"type":"event","name":"AdminSet","inputs":[{"name":"oldAdmin","type":"address","indexed":true,"internalType":"address"},{"name":"newAdmin","type":"address","indexed":true,"internalType":"address"}],"anonymous":false},{"type":"event","name":"Approval","inputs":[{"name":"owner","type":"address","indexed":true,"internalType":"address"},{"name":"approved","type":"address","indexed":true,"internalType":"address"},{"name":"tokenId","type":"uint256","indexed":true,"internalType":"uint256"}],"anonymous":false},{"type":"event","name":"ApprovalForAll","inputs":[{"name":"owner","type":"address","indexed":true,"internalType":"address"},{"name":"operator","type":"address","indexed":true,"internalType":"address"},{"name":"approved","type":"bool","indexed":false,"internalType":"bool"}],"anonymous":false},{"type":"event","name":"BecameUser","inputs":[{"name":"user","type":"address","indexed":true,"internalType":"address"},{"name":"userId","type":"uint256","indexed":true,"internalType":"uint256"},{"name":"name","type":"string","indexed":false,"internalType":"string"},{"name":"email","type":"string","indexed":false,"internalType":"string"},{"name":"image","type":"string","indexed":false,"internalType":"string"}],"anonymous":false},{"type":"event","name":"OwnershipTransferred","inputs":[{"name":"previousOwner","type":"address","indexed":true,"internalType":"address"},{"name":"newOwner","type":"address","indexed":true,"internalType":"address"}],"anonymous":false},{"type":"event","name":"Transfer","inputs":[{"name":"from","type":"address","indexed":true,"internalType":"address"},{"name":"to","type":"address","indexed":true,"internalType":"address"},{"name":"tokenId","type":"uint256","indexed":true,"internalType":"uint256"}],"anonymous":false},{"type":"event","name":"UserLeft","inputs":[{"name":"user","type":"address","indexed":true,"internalType":"address"},{"name":"userId","type":"uint256","indexed":true,"internalType":"uint256"}],"anonymous":false},{"type":"error","name":"ERC721IncorrectOwner","inputs":[{"name":"sender","type":"address","internalType":"address"},{"name":"tokenId","type":"uint256","internalType":"uint256"},{"name":"owner","type":"address","internalType":"address"}]},{"type":"error","name":"ERC721InsufficientApproval","inputs":[{"name":"operator","type":"address","internalType":"address"},{"name":"tokenId","type":"uint256","internalType":"uint256"}]},{"type":"error","name":"ERC721InvalidApprover","inputs":[{"name":"approver","type":"address","internalType":"address"}]},{"type":"error","name":"ERC721InvalidOperator","inputs":[{"name":"operator","type":"address","internalType":"address"}]},{"type":"error","name":"ERC721InvalidOwner","inputs":[{"name":"owner","type":"address","internalType":"address"}]},{"type":"error","name":"ERC721InvalidReceiver","inputs":[{"name":"receiver","type":"address","internalType":"address"}]},{"type":"error","name":"ERC721InvalidSender","inputs":[{"name":"sender","type":"address","internalType":"address"}]},{"type":"error","name":"ERC721Metadata__URI_QueryFor_NonExistentToken","inputs":[]},{"type":"error","name":"ERC721NonexistentToken","inputs":[{"name":"tokenId","type":"uint256","internalType":"uint256"}]},{"type":"error","name":"OwnableInvalidOwner","inputs":[{"name":"owner","type":"address","internalType":"address"}]},{"type":"error","name":"OwnableUnauthorizedAccount","inputs":[{"name":"account","type":"address","internalType":"address"}]},{"type":"error","name":"UR__CannotTransferNFT","inputs":[]},{"type":"error","name":"UR__CantBeZeroAddress","inputs":[]},{"type":"error","name":"UR__NotAdmin","inputs":[]}],"bytecode":{"object":"0x608060405234801561000f575f5ffd5b50336040518060400160405280600b81526020016a05553747265616d444170760ac1b815250604051806040016040528060048152602001635553444160e01b815250815f908161006091906101a7565b50600161006d82826101a7565b5050506001600160a01b03811661009d57604051631e4fbdf760e01b81525f600482015260240160405180910390fd5b6100a6816100be565b50600880546001600160a01b03191633179055610261565b600680546001600160a01b038381166001600160a01b0319831681179093556040519116919082907f8be0079c531659141344cd1fd0a4f28419497f9722a3daafe3b4186f6b6457e0905f90a35050565b634e487b7160e01b5f52604160045260245ffd5b600181811c9082168061013757607f821691505b60208210810361015557634e487b7160e01b5f52602260045260245ffd5b50919050565b601f8211156101a257805f5260205f20601f840160051c810160208510156101805750805b601f840160051c820191505b8181101561019f575f815560010161018c565b50505b505050565b81516001600160401b038111156101c0576101c061010f565b6101d4816101ce8454610123565b8461015b565b6020601f821160018114610206575f83156101ef5750848201515b5f19600385901b1c1916600184901b17845561019f565b5f84815260208120601f198516915b828110156102355787850151825560209485019460019092019101610215565b508482101561025257868401515f19600387901b60f8161c191681555b50505050600190811b01905550565b611cdc8061026e5f395ff3fe608060405234801561000f575f5ffd5b5060043610610148575f3560e01c8063715018a6116100bf578063b88d4fde11610079578063b88d4fde146102aa578063be9b20d9146102b8578063c87b56dd146102d7578063d66d9e19146102ea578063e985e9c5146102f2578063f2fde38b14610305575f5ffd5b8063715018a6146102505780638da5cb5b1461025857806395d89b41146102695780639857518814610271578063a22cb46514610284578063b07fe0e014610297575f5ffd5b806323b872dd1161011057806323b872dd146101e057806342842e0e146101f35780636352211e146102065780636e9960c314610219578063704b6c021461022a57806370a082311461023d575f5ffd5b806301ffc9a71461014c57806306fdde031461017457806307973ccf14610189578063081812fc146101a0578063095ea7b3146101cb575b5f5ffd5b61015f61015a3660046115c0565b610318565b60405190151581526020015b60405180910390f35b61017c610369565b60405161016b9190611609565b61019260095481565b60405190815260200161016b565b6101b36101ae36600461161b565b6103f8565b6040516001600160a01b03909116815260200161016b565b6101de6101d936600461164d565b61041f565b005b6101de6101ee366004611675565b61042e565b6101de610201366004611675565b610447565b6101b361021436600461161b565b610466565b6008546001600160a01b03166101b3565b6101de6102383660046116af565b610470565b61019261024b3660046116af565b610515565b6101de61055f565b6006546001600160a01b03166101b3565b61017c610572565b6101de61027f3660046116af565b610581565b6101de6102923660046116c8565b6106e0565b6101de6102a53660046117aa565b6106eb565b6101de6101ee366004611838565b6101926102c63660046116af565b600a6020525f908152604090205481565b61017c6102e536600461161b565b610971565b6101de610bf7565b61015f6103003660046118af565b610d44565b6101de6103133660046116af565b610d71565b5f6001600160e01b031982166380ac58cd60e01b148061034857506001600160e01b03198216635b5e139f60e01b145b8061036357506301ffc9a760e01b6001600160e01b03198316145b92915050565b60605f8054610377906118e0565b80601f01602080910402602001604051908101604052809291908181526020018280546103a3906118e0565b80156103ee5780601f106103c5576101008083540402835291602001916103ee565b820191905f5260205f20905b8154815290600101906020018083116103d157829003601f168201915b5050505050905090565b5f61040282610dae565b505f828152600460205260409020546001600160a01b0316610363565b61042a828233610de6565b5050565b6040516301aa3b1360e61b815260040160405180910390fd5b61046183838360405180602001604052805f81525061042e565b505050565b5f61036382610dae565b6008546001600160a01b0316331461049b576040516358e6cfe160e11b815260040160405180910390fd5b806001600160a01b0381166104c357604051636c816fd160e11b815260040160405180910390fd5b600880546001600160a01b038481166001600160a01b0319831681179093556040519116919082907fbf265e8326285a2747e33e54d5945f7111f2b5edb826eb8c08d4677779b3ff97905f90a3505050565b5f6001600160a01b038216610544576040516322718ad960e21b81525f60048201526024015b60405180910390fd5b506001600160a01b03165f9081526003602052604090205490565b610567610df3565b6105705f610e20565b565b606060018054610377906118e0565b6008546001600160a01b031633146105ac576040516358e6cfe160e11b815260040160405180910390fd5b806001600160a01b0381166105d457604051636c816fd160e11b815260040160405180910390fd5b6001600160a01b0382165f908152600a6020526040812054908190036106335760405162461bcd60e51b81526020600482015260146024820152735573657220646f6573206e6f742065786973742160601b604482015260640161053b565b61063c81610e71565b6001600160a01b0383165f908152600a60209081526040808320839055838352600b909152812080546001600160a01b03191681559061067f6001830182611561565b61068c600283015f611561565b610699600383015f611561565b505060098054905f6106aa8361192c565b9091555050604051819033907f66ac3b2f1631f29b7b1d5a7805e6c6728f0ac50215c365bc759219d4441ce469905f90a3505050565b61042a338383610ea9565b335f908152600a6020526040902054156107475760405162461bcd60e51b815260206004820152601c60248201527f557365722070726f66696c6520616c7265616479206578697374732100000000604482015260640161053b565b5f5b600754811161085e578280519060200120600b5f8381526020019081526020015f2060020160405161077b9190611941565b6040518091039020036107d05760405162461bcd60e51b815260206004820152601d60248201527f456d61696c2070726f66696c6520616c72656164792065786973747321000000604482015260640161053b565b8380519060200120600b5f8381526020019081526020015f206001016040516107f99190611941565b60405180910390200361084e5760405162461bcd60e51b815260206004820181905260248201527f557365726e616d652068617320616c7265616479206265656e2074616b656e21604482015260640161053b565b610857816119b2565b9050610749565b505f60075f815461086e906119b2565b9182905550905061087f3382610f47565b60095f815461088d906119b2565b90915550604080516080810182523381526020808201878152828401879052606083018690525f858152600b909252929020815181546001600160a01b0319166001600160a01b03909116178155915190919060018201906108ef9082611a0e565b50604082015160028201906109049082611a0e565b50606082015160038201906109199082611a0e565b5050335f818152600a602052604090819020849055518392507f32db93c778faeefeb20c59ea154d991a5116264ef3aa3db0089557f1d6e9fd679061096390889088908890611ac9565b60405180910390a350505050565b60605f61097d83610466565b6001600160a01b0316036109a4576040516336faf6d760e11b815260040160405180910390fd5b5f828152600b602052604081208054600190910180546001600160a01b0390921692916109d0906118e0565b80601f01602080910402602001604051908101604052809291908181526020018280546109fc906118e0565b8015610a475780601f10610a1e57610100808354040283529160200191610a47565b820191905f5260205f20905b815481529060010190602001808311610a2a57829003601f168201915b505050505090505f600b5f8681526020019081526020015f206002018054610a6e906118e0565b80601f0160208091040260200160405190810160405280929190818152602001828054610a9a906118e0565b8015610ae55780601f10610abc57610100808354040283529160200191610ae5565b820191905f5260205f20905b815481529060010190602001808311610ac857829003601f168201915b505050505090505f600b5f8781526020019081526020015f206003018054610b0c906118e0565b80601f0160208091040260200160405190810160405280929190818152602001828054610b38906118e0565b8015610b835780601f10610b5a57610100808354040283529160200191610b83565b820191905f5260205f20905b815481529060010190602001808311610b6657829003601f168201915b50505050509050610b9e60408051602081019091525f815290565b610bcc85858585604051602001610bb89493929190611b22565b604051602081830303815290604052610f60565b604051602001610bdd929190611bbc565b604051602081830303815290604052945050505050919050565b335f908152600a602052604081205490819003610c4d5760405162461bcd60e51b81526020600482015260146024820152735573657220646f6573206e6f742065786973742160601b604482015260640161053b565b33610c5782610466565b6001600160a01b031614610ca25760405162461bcd60e51b81526020600482015260126024820152714e6f742070726f66696c65206f776e65722160701b604482015260640161053b565b610cab81610e71565b335f908152600a60209081526040808320839055838352600b909152812080546001600160a01b031916815590610ce56001830182611561565b610cf2600283015f611561565b610cff600383015f611561565b505060098054905f610d108361192c565b9091555050604051819033907f66ac3b2f1631f29b7b1d5a7805e6c6728f0ac50215c365bc759219d4441ce469905f90a350565b6001600160a01b039182165f90815260056020908152604080832093909416825291909152205460ff1690565b610d79610df3565b6001600160a01b038116610da257604051631e4fbdf760e01b81525f600482015260240161053b565b610dab81610e20565b50565b5f818152600260205260408120546001600160a01b03168061036357604051637e27328960e01b81526004810184905260240161053b565b6104618383836001610f86565b6006546001600160a01b031633146105705760405163118cdaa760e01b815233600482015260240161053b565b600680546001600160a01b038381166001600160a01b0319831681179093556040519116919082907f8be0079c531659141344cd1fd0a4f28419497f9722a3daafe3b4186f6b6457e0905f90a35050565b5f610e7d5f835f61108a565b90506001600160a01b03811661042a57604051637e27328960e01b81526004810183905260240161053b565b6001600160a01b038216610edb57604051630b61174360e31b81526001600160a01b038316600482015260240161053b565b6001600160a01b038381165f81815260056020908152604080832094871680845294825291829020805460ff191686151590811790915591519182527f17307eab39ab6107e8899845ad3d59bd9653f200f220920489ca2b5937696c31910160405180910390a3505050565b61042a828260405180602001604052805f81525061117e565b606061036382604051806060016040528060408152602001611c67604091396001611195565b8080610f9a57506001600160a01b03821615155b1561105b575f610fa984610dae565b90506001600160a01b03831615801590610fd55750826001600160a01b0316816001600160a01b031614155b8015610fe85750610fe68184610d44565b155b156110115760405163a9fbf51f60e01b81526001600160a01b038416600482015260240161053b565b81156110595783856001600160a01b0316826001600160a01b03167f8c5be1e5ebec7d5bd14f71427d1e84f3dd0314c0f7b2291e5b200ac8c7c3b92560405160405180910390a45b505b50505f90815260046020526040902080546001600160a01b0319166001600160a01b0392909216919091179055565b5f828152600260205260408120546001600160a01b03908116908316156110b6576110b6818486611310565b6001600160a01b038116156110f0576110d15f855f5f610f86565b6001600160a01b0381165f90815260036020526040902080545f190190555b6001600160a01b0385161561111e576001600160a01b0385165f908152600360205260409020805460010190555b5f8481526002602052604080822080546001600160a01b0319166001600160a01b0389811691821790925591518793918516917fddf252ad1be2c89b69c2b068fc378daa952ba7f163c4a11628f55a4df523b3ef91a490505b9392505050565b6111888383611374565b610461335f8585856113d5565b606083515f036111b3575060408051602081019091525f8152611177565b5f826111e3576003855160046111c99190611bd0565b6111d4906002611be7565b6111de9190611bfa565b611208565b6003855160026111f39190611be7565b6111fd9190611bfa565b611208906004611bd0565b90505f8167ffffffffffffffff81111561122457611224611701565b6040519080825280601f01601f19166020018201604052801561124e576020820181803683370190505b509050600185016020820187885189016020810180515f82525b828410156112c3576003840193508351603f8160121c168701518653600186019550603f81600c1c168701518653600186019550603f8160061c168701518653600186019550603f8116870151865350600185019450611268565b905250508515611304576003885106600181146112e757600281146112fa57611302565b603d6001830353603d6002830353611302565b603d60018303535b505b50909695505050505050565b61131b8383836114fd565b610461576001600160a01b03831661134957604051637e27328960e01b81526004810182905260240161053b565b60405163177e802f60e01b81526001600160a01b03831660048201526024810182905260440161053b565b6001600160a01b03821661139d57604051633250574960e11b81525f600482015260240161053b565b5f6113a983835f61108a565b90506001600160a01b03811615610461576040516339e3563760e11b81525f600482015260240161053b565b6001600160a01b0383163b156114f657604051630a85bd0160e11b81526001600160a01b0384169063150b7a0290611417908890889087908790600401611c19565b6020604051808303815f875af1925050508015611451575060408051601f3d908101601f1916820190925261144e91810190611c4b565b60015b6114b8573d80801561147e576040519150601f19603f3d011682016040523d82523d5f602084013e611483565b606091505b5080515f036114b057604051633250574960e11b81526001600160a01b038516600482015260240161053b565b805181602001fd5b6001600160e01b03198116630a85bd0160e11b146114f457604051633250574960e11b81526001600160a01b038516600482015260240161053b565b505b5050505050565b5f6001600160a01b038316158015906115595750826001600160a01b0316846001600160a01b0316148061153657506115368484610d44565b8061155957505f828152600460205260409020546001600160a01b038481169116145b949350505050565b50805461156d906118e0565b5f825580601f1061157c575050565b601f0160209004905f5260205f2090810190610dab91905b808211156115a7575f8155600101611594565b5090565b6001600160e01b031981168114610dab575f5ffd5b5f602082840312156115d0575f5ffd5b8135611177816115ab565b5f81518084528060208401602086015e5f602082860101526020601f19601f83011685010191505092915050565b602081525f61117760208301846115db565b5f6020828403121561162b575f5ffd5b5035919050565b80356001600160a01b0381168114611648575f5ffd5b919050565b5f5f6040838503121561165e575f5ffd5b61166783611632565b946020939093013593505050565b5f5f5f60608486031215611687575f5ffd5b61169084611632565b925061169e60208501611632565b929592945050506040919091013590565b5f602082840312156116bf575f5ffd5b61117782611632565b5f5f604083850312156116d9575f5ffd5b6116e283611632565b9150602083013580151581146116f6575f5ffd5b809150509250929050565b634e487b7160e01b5f52604160045260245ffd5b5f5f67ffffffffffffffff84111561172f5761172f611701565b50604051601f19601f85018116603f0116810181811067ffffffffffffffff8211171561175e5761175e611701565b604052838152905080828401851015611775575f5ffd5b838360208301375f60208583010152509392505050565b5f82601f83011261179b575f5ffd5b61117783833560208501611715565b5f5f5f606084860312156117bc575f5ffd5b833567ffffffffffffffff8111156117d2575f5ffd5b6117de8682870161178c565b935050602084013567ffffffffffffffff8111156117fa575f5ffd5b6118068682870161178c565b925050604084013567ffffffffffffffff811115611822575f5ffd5b61182e8682870161178c565b9150509250925092565b5f5f5f5f6080858703121561184b575f5ffd5b61185485611632565b935061186260208601611632565b925060408501359150606085013567ffffffffffffffff811115611884575f5ffd5b8501601f81018713611894575f5ffd5b6118a387823560208401611715565b91505092959194509250565b5f5f604083850312156118c0575f5ffd5b6118c983611632565b91506118d760208401611632565b90509250929050565b600181811c908216806118f457607f821691505b60208210810361191257634e487b7160e01b5f52602260045260245ffd5b50919050565b634e487b7160e01b5f52601160045260245ffd5b5f8161193a5761193a611918565b505f190190565b5f5f835461194e816118e0565b600182168015611965576001811461197a576119a7565b60ff19831686528115158202860193506119a7565b865f5260205f205f5b8381101561199f57815488820152600190910190602001611983565b505081860193505b509195945050505050565b5f600182016119c3576119c3611918565b5060010190565b601f82111561046157805f5260205f20601f840160051c810160208510156119ef5750805b601f840160051c820191505b818110156114f6575f81556001016119fb565b815167ffffffffffffffff811115611a2857611a28611701565b611a3c81611a3684546118e0565b846119ca565b6020601f821160018114611a6e575f8315611a575750848201515b5f19600385901b1c1916600184901b1784556114f6565b5f84815260208120601f198516915b82811015611a9d5787850151825560209485019460019092019101611a7d565b5084821015611aba57868401515f19600387901b60f8161c191681555b50505050600190811b01905550565b606081525f611adb60608301866115db565b8281036020840152611aed81866115db565b90508281036040840152611b0181856115db565b9695505050505050565b5f81518060208401855e5f93019283525090919050565b6b3d9130b2323932b9b9911d1160a11b8152606085901b6bffffffffffffffffffffffff1916600c82015267113730b6b2911d1160c11b60208201525f611b6c6028830186611b0b565b681132b6b0b4b6111d1160b91b8152611b886009820186611b0b565b681134b6b0b3b2911d1160b91b81529050611ba66009820185611b0b565b61227d60f01b8152600201979650505050505050565b5f611559611bca8386611b0b565b84611b0b565b808202811582820484141761036357610363611918565b8082018082111561036357610363611918565b5f82611c1457634e487b7160e01b5f52601260045260245ffd5b500490565b6001600160a01b03858116825284166020820152604081018390526080606082018190525f90611b01908301846115db565b5f60208284031215611c5b575f5ffd5b8151611177816115ab56fe4142434445464748494a4b4c4d4e4f505152535455565758595a6162636465666768696a6b6c6d6e6f707172737475767778797a303132333435363738392b2fa26469706673582212202b37aaf1666b329d78d16decc74b8c84fb0c9302d6b02d736d88ada9f96cc50b64736f6c634300081b0033","linkReferences":{}},"methodIdentifiers":{"approve(address,uint256)":"095ea7b3","balanceOf(address)":"70a08231","becomeUser(string,string,string)":"b07fe0e0","getAdmin()":"6e9960c3","getApproved(uint256)":"081812fc","isApprovedForAll(address,address)":"e985e9c5","leave()":"d66d9e19","name()":"06fdde03","owner()":"8da5cb5b","ownerOf(uint256)":"6352211e","removeUser(address)":"98575188","renounceOwnership()":"715018a6","safeTransferFrom(address,address,uint256)":"42842e0e","safeTransferFrom(address,address,uint256,bytes)":"b88d4fde","setAdmin(address)":"704b6c02","setApprovalForAll(address,bool)":"a22cb465","supportsInterface(bytes4)":"01ffc9a7","symbol()":"95d89b41","tokenURI(uint256)":"c87b56dd","transferFrom(address,address,uint256)":"23b872dd","transferOwnership(address)":"f2fde38b","userCount()":"07973ccf","userToNftId(address)":"be9b20d9"},"id":39}