{"abi":[{"type":"constructor","inputs":[],"stateMutability":"nonpayable"},{"type":"function","name":"addCreator","inputs":[{"name":"applicant","type":"address","internalType":"address"}],"outputs":[],"stateMutability":"nonpayable"},{"type":"function","name":"getAdmin","inputs":[],"outputs":[{"name":"","type":"address","internalType":"address"}],"stateMutability":"view"},{"type":"function","name":"getCreatorCount","inputs":[],"outputs":[{"name":"","type":"uint256","internalType":"uint256"}],"stateMutability":"view"},{"type":"function","name":"getCreatorList","inputs":[],"outputs":[{"name":"","type":"address[]","internalType":"address[]"}],"stateMutability":"view"},{"type":"function","name":"getCreatorStatus","inputs":[{"name":"_creator","type":"address","internalType":"address"}],"outputs":[{"name":"","type":"bool","internalType":"bool"}],"stateMutability":"view"},{"type":"function","name":"owner","inputs":[],"outputs":[{"name":"","type":"address","internalType":"address"}],"stateMutability":"view"},{"type":"function","name":"removeCreator","inputs":[{"name":"creator","type":"address","internalType":"address"}],"outputs":[],"stateMutability":"nonpayable"},{"type":"function","name":"renounceOwnership","inputs":[],"outputs":[],"stateMutability":"nonpayable"},{"type":"function","name":"setAdmin","inputs":[{"name":"newAdmin","type":"address","internalType":"address"}],"outputs":[],"stateMutability":"nonpayable"},{"type":"function","name":"transferOwnership","inputs":[{"name":"newOwner","type":"address","internalType":"address"}],"outputs":[],"stateMutability":"nonpayable"},{"type":"event","name":"AdminSet","inputs":[{"name":"oldAdmin","type":"address","indexed":true,"internalType":"address"},{"name":"newAdmin","type":"address","indexed":true,"internalType":"address"}],"anonymous":false},{"type":"event","name":"CreatorAdded","inputs":[{"name":"creator","type":"address","indexed":true,"internalType":"address"},{"name":"adminWhoAddedCreator","type":"address","indexed":true,"internalType":"address"}],"anonymous":false},{"type":"event","name":"CreatorRemoved","inputs":[{"name":"creator","type":"address","indexed":true,"internalType":"address"},{"name":"adminWhoRemovedCreator","type":"address","indexed":true,"internalType":"address"}],"anonymous":false},{"type":"event","name":"OwnershipTransferred","inputs":[{"name":"previousOwner","type":"address","indexed":true,"internalType":"address"},{"name":"newOwner","type":"address","indexed":true,"internalType":"address"}],"anonymous":false},{"type":"error","name":"CR__CantBeZeroAddress","inputs":[]},{"type":"error","name":"CR__CreatorDoesntExist","inputs":[]},{"type":"error","name":"CR__CreatorExist","inputs":[]},{"type":"error","name":"CR__NotAdmin","inputs":[]},{"type":"error","name":"OwnableInvalidOwner","inputs":[{"name":"owner","type":"address","internalType":"address"}]},{"type":"error","name":"OwnableUnauthorizedAccount","inputs":[{"name":"account","type":"address","internalType":"address"}]}],"bytecode":{"object":"0x6080604052348015600e575f5ffd5b503380603357604051631e4fbdf760e01b81525f600482015260240160405180910390fd5b603a816055565b50600180546001600160a01b031916331790555f60025560a4565b5f80546001600160a01b038381166001600160a01b0319831681178455604051919092169283917f8be0079c531659141344cd1fd0a4f28419497f9722a3daafe3b4186f6b6457e09190a35050565b610800806100b15f395ff3fe608060405234801561000f575f5ffd5b506004361061009b575f3560e01c8063bd6018bb11610063578063bd6018bb14610109578063c92d72311461011c578063dfe6712e14610131578063ef4a738714610142578063f2fde38b14610165575f5ffd5b80633b9dce051461009f5780636e9960c3146100b4578063704b6c02146100de578063715018a6146100f15780638da5cb5b146100f9575b5f5ffd5b6100b26100ad3660046106d0565b610178565b005b6001546001600160a01b03165b6040516001600160a01b0390911681526020015b60405180910390f35b6100b26100ec3660046106d0565b6102b7565b6100b261035c565b5f546001600160a01b03166100c1565b6100b26101173660046106d0565b61036f565b610124610472565b6040516100d591906106fd565b6002546040519081526020016100d5565b6101556101503660046106d0565b6104d2565b60405190151581526020016100d5565b6100b26101733660046106d0565b61051a565b6001546001600160a01b031633146101a357604051631a921b0b60e01b815260040160405180910390fd5b6001600160a01b0381165f90815260046020526040902054819060ff16156101de57604051632c509c0f60e21b815260040160405180910390fd5b816001600160a01b03811661020657604051631004e26360e01b815260040160405180910390fd5b6001600160a01b0383165f818152600460205260408120805460ff1916600190811790915560038054918201815582527fc2575a0e9e593c00f959f8c92f12db2869c3395a3b0502d05e2516446f71f85b0180546001600160a01b03191690921790915560028054916102788361075c565b909155505060405133906001600160a01b038516907ffc9351e722ed89265a8fd29fc15bc7ea282cbac7ef0fd733bae6ecd91c57a995905f90a3505050565b6001546001600160a01b031633146102e257604051631a921b0b60e01b815260040160405180910390fd5b806001600160a01b03811661030a57604051631004e26360e01b815260040160405180910390fd5b600180546001600160a01b038481166001600160a01b0319831681179093556040519116919082907fbf265e8326285a2747e33e54d5945f7111f2b5edb826eb8c08d4677779b3ff97905f90a3505050565b61036461055c565b61036d5f610588565b565b6001546001600160a01b0316331461039a57604051631a921b0b60e01b815260040160405180910390fd5b6001600160a01b0381165f90815260046020526040902054819060ff166103d457604051632ba45d3360e11b815260040160405180910390fd5b816001600160a01b0381166103fc57604051631004e26360e01b815260040160405180910390fd5b6001600160a01b0383165f908152600460205260409020805460ff19169055610424836105d7565b60028054905f61043383610774565b909155505060405133906001600160a01b038516907fe48f2f409dedbb89c4b17c0a2ea2152ee2449ca5e37a7bc0aabe5ea336092f48905f90a3505050565b606060038054806020026020016040519081016040528092919081815260200182805480156104c857602002820191905f5260205f20905b81546001600160a01b031681526001909101906020018083116104aa575b5050505050905090565b5f816001600160a01b0381166104fb57604051631004e26360e01b815260040160405180910390fd5b50506001600160a01b03165f9081526004602052604090205460ff1690565b61052261055c565b6001600160a01b03811661055057604051631e4fbdf760e01b81525f60048201526024015b60405180910390fd5b61055981610588565b50565b5f546001600160a01b0316331461036d5760405163118cdaa760e01b8152336004820152602401610547565b5f80546001600160a01b038381166001600160a01b0319831681178455604051919092169283917f8be0079c531659141344cd1fd0a4f28419497f9722a3daafe3b4186f6b6457e09190a35050565b6003545f5b818110156106cb57826001600160a01b03166003828154811061060157610601610789565b5f918252602090912001546001600160a01b0316036106c357600361062760018461079d565b8154811061063757610637610789565b5f91825260209091200154600380546001600160a01b03909216918390811061066257610662610789565b905f5260205f20015f6101000a8154816001600160a01b0302191690836001600160a01b03160217905550600380548061069e5761069e6107b6565b5f8281526020902081015f1990810180546001600160a01b0319169055019055505050565b6001016105dc565b505050565b5f602082840312156106e0575f5ffd5b81356001600160a01b03811681146106f6575f5ffd5b9392505050565b602080825282518282018190525f918401906040840190835b8181101561073d5783516001600160a01b0316835260209384019390920191600101610716565b509095945050505050565b634e487b7160e01b5f52601160045260245ffd5b5f6001820161076d5761076d610748565b5060010190565b5f8161078257610782610748565b505f190190565b634e487b7160e01b5f52603260045260245ffd5b818103818111156107b0576107b0610748565b92915050565b634e487b7160e01b5f52603160045260245ffdfea264697066735822122081155d42a352773475e096d637bd4953d5041687a97ad28642019151aceb9bfc64736f6c634300081b0033","linkReferences":{}},"methodIdentifiers":{"addCreator(address)":"3b9dce05","getAdmin()":"6e9960c3","getCreatorCount()":"dfe6712e","getCreatorList()":"c92d7231","getCreatorStatus(address)":"ef4a7387","owner()":"8da5cb5b","removeCreator(address)":"bd6018bb","renounceOwnership()":"715018a6","setAdmin(address)":"704b6c02","transferOwnership(address)":"f2fde38b"},"id":37}